:020000040800F2
:100000000080012069030008B9030008B903000853
:10001000B9030008B9030008B90300080000000094
:10002000000000000000000000000000B90300080C
:10003000B903000800000000B9030008B903000874
:1000400000000000B9030008B9030008B903000864
:10005000B9030008B9030008B9030008B903000890
:10006000B9030008B9030008B9030008B903000880
:10007000B9030008B9030008B9030008B903000870
:10008000B9030008B9030008B90300080000000024
:10009000000000000000000000000000B90300089C
:1000A000B9030008B9030008B9030008B903000840
:1000B000B9030008B9030008B9030008B903000830
:1000C000B9030008B9030008B9030008B903000820
:1000D000B9030008B9030008B903000800000000D4
:1000E000B9030008B9030008B903000800000000C4
:1000F000000000000000000000000000B90300083C
:1001000000000000B9030008B9030008B9030008A3
:1001100000000000000000000000000000000000DF
:10012000B9030008B9030008B9030008B9030008BF
:10013000B9030008000000000000000000000000FB
:10014000000000000000000000000000B9030008EB
:10015000B9030008B9030008B9030008B90300088F
:10016000B9030008B9030008000000000000000007
:10017000000000000000000000000000000000007F
:10018000000000000000000000000000000000006F
:04019000B9030008A7
:1001940010B5054C237833B9044B13B10448AFF3BD
:1001A40000800123237010BD000000200000000027
:1001B4000404000808B5034B1BB103490348AFF31B
:1001C400008008BD000000000400002004040008B2
:1001D40080B485B000AF786039601A4B1B6B194A44
:1001E40043F0010313630023FB8120E0164B1A68DC
:1001F400FB899B0079680B441B685B00012101FAB1
:1002040003F3114913430B600F4B1A68FB899B00DE
:1002140079680B441B685B000133012101FA03F385
:10022400DB43094913400B60FB890133FB81FB89E4
:100234003A689A42DADC00BF00BF1437BD465DF865
:10024400047B7047003802400000024080B483B051
:1002540000AF78601D4B1B6B1C4A43F00103136312
:100264001B4B1B687A685200012101FA02F2D24347
:100274001146174A0B401360154B1B687A685200ED
:100284000132012101FA02F2D2431146104A0B4015
:1002940013600F4BDA687B685B000133012101FABC
:1002A40003F30B491343CB60094BDA687B685B00AB
:1002B400012101FA03F3DB4305491340CB6000BF7E
:1002C4000C37BD465DF8047B704700BF0038024020
:1002D4000000024090B589B000AF0023FB61002309
:1002E400BB611D4B07F108040FCB84E80F0007F135
:1002F400080304211846FFF76BFF0520FFF7A6FF4C
:10030400164B1B6903F02003BB61BB69002BF7D0BC
:10031400FB690133FB61FB690F2B01D90023FB61EE
:100324000E4B5B6923F00F02FB6903F00F030B49CB
:1003340013434B6100237B6002E07B6801337B60E5
:100344007B68074A9342F8DD00BF044B1B6903F046
:100354002003002BF9D1D3E71C040008000002405D
:100364009F8601000D488546AFF300800C480D4977
:100374000D4A002302E0D458C4500433C4188C42FC
:10038400F9D30A4A0A4C002301E013600432A24262
:10039400FBD300F011F8FFF79DFFFEE7008001207A
:1003A40000000020000000203404000800000020A9
:1003B4001C000020FEE7000070B50D4D0D4C641BC1
:1003C400A4100026A64209D10B4D0C4C00F018F8DD
:1003D400641BA4100026A64205D170BD55F8043B49
:1003E40098470136EEE755F8043B98470136F2E7A3
:1003F4002C0400082C0400082C0400083004000815
:10040400F8B500BFF8BC08BC9E467047F8B500BFFD
:08041400F8BC08BC9E467047CD
:10041C0000000000010000000200000003000000CA
:04042C00B90100080A
:04043000950100082A
:040000050800036983
:00000001FF
