:020000040800F2
:1000000000800120A1070008F1070008F10700089F
:10001000F1070008F1070008F107000800000000E0
:10002000000000000000000000000000F1070008D0
:10003000F107000800000000F1070008F1070008C0
:1000400000000000F1070008F1070008F1070008B0
:10005000F1070008F10700082D070008F107000864
:10006000F1070008F1070008F1070008F107000890
:10007000F1070008F1070008F1070008F107000880
:10008000F1070008F1070008F10700080000000070
:10009000000000000000000000000000F107000860
:1000A000F1070008F1070008F1070008F107000850
:1000B000F1070008F1070008F1070008F107000840
:1000C000F1070008F1070008F1070008F107000830
:1000D000F1070008F1070008F10700080000000020
:1000E000F1070008F1070008F10700080000000010
:1000F000000000000000000000000000F107000800
:1001000000000000F1070008F1070008F1070008EF
:1001100000000000000000000000000000000000DF
:10012000F1070008F1070008F1070008F1070008CF
:10013000F1070008000000000000000000000000BF
:10014000000000000000000000000000F1070008AF
:10015000F1070008F1070008F1070008F10700089F
:10016000F1070008F107000800000000000000008F
:10017000000000000000000000000000000000007F
:10018000000000000000000000000000000000006F
:04019000F10700086B
:1001940010B5054C237833B9044B13B10448AFF3BD
:1001A40000800123237010BD000000200000000027
:1001B4003C08000808B5034B1BB103490348AFF3DF
:1001C400008008BD00000000040000203C08000876
:1001D40080B483B000AF0346FB7197F90730002B5E
:1001E4000BDBFB7903F01F02074997F907305B0922
:1001F400012000FA02F241F8232000BF0C37BD466B
:100204005DF8047B704700BF00E100E080B500AFFB
:1002140072B600BF1E4B1B6B1D4A43F002031363EF
:100224001C4B1B681B4A23F001031360194B1B680A
:10023400184A23F002031360164BDB68154A43F097
:100244000203D360134BDB68124A23F00103D3602B
:100254000F4B5B6C0E4A43F4804353640E4B9B6814
:100264000D4A43F0010393600C4B1B680B4A43F0A7
:1002740001031360094B9B68084A43F00103936030
:100284000620FFF7A5FF62B600BF00BF80BD00BF18
:10029400003802400004024000380140003C0140A4
:1002A40080B485B000AF78603960194B1B6B184A75
:1002B40043F0010313630023FB811EE0FB899B00D1
:1002C4007A6813441B689BB25B00BB81114B1A68AC
:1002D400BB89012101FA03F30E4913430B600D4B53
:1002E4001A68BB890133012101FA03F3DB4309498D
:1002F40013400B60FB890133FB81FB893A689A4206
:10030400DCDC00BF00BF1437BD465DF8047B7047DA
:10031400003802400000024080B483B000AF2D4B8F
:1003240000221A604AE02C4B5B692A4A12680121B8
:1003340001FA02F21146284A0B43536100237B6001
:1003440002E07B6801337B607B684CF24F3293425E
:10035400F7DD204B1B6801331E4A13601D4B1B68DD
:10036400102B2BD11C4B5B691B4A1B0C1B045361C8
:100374001AE0184B1B68013B164A1360164B5B6965
:10038400144A1268012101FA02F21146124A0B437F
:10039400536100233B6002E03B6801333B603B68F0
:1003A4004CF24F329342F7DD0A4B1B68002BE0D12D
:1003B400084B00221A60084B00225A61074B1B6845
:1003C400012BB0D000BF00BF0C37BD465DF8047BE5
:1003D400704700BF1C0000200000024020000020E5
:1003E40080B487B000AF524B00221A6094E0514BA6
:1003F4005B694F4A1268012101FA02F211464D4A23
:100404000B4353614A4B1B680133494A1360002371
:100414007B6102E07B6901337B617B694CF24F3283
:100424009342F7DD424B1B68042B75D1404B1B688C
:10043400013B3F4A13601AE03D4B1B6803333C4ABF
:1004440013603C4B5B693A4A1268012101FA02F2DB
:100454001146384A0B43536100233B6102E03B6978
:1004640001333B613B694CF24F329342F7DD304B31
:100474001B680B2BE0D91AE02D4B1B6801332C4A67
:1004840013602C4B5B692A4A1268012101FA02F2BB
:100494001146284A0B4353610023FB6002E0FB68CA
:1004A4000133FB60FB684CF24F329342F7DD204B83
:1004B4001B680E2BE0D91AE01D4B1B68053B1C4A38
:1004C40013601C4B5B691A4A1268012101FA02F29B
:1004D4001146184A0B4353610023BB6002E0BB681A
:1004E4000133BB60BB684CF24F329342F7DD104BD3
:1004F4001B68002BE0D10F4B00225A6100237B6064
:1005040002E07B6801337B607B684CF24F3293429C
:10051400F7DD074B00221A60074B1B68022B3FF4E0
:1005240066AF00BF00BF1C37BD465DF8047B704753
:100534001C000020000002402000002080B48BB08A
:1005440000AF5D4B41F211121A6099E05B4B5A699E
:10055400594B1B68594913434B6100237B6202E0EA
:100564007B6A01337B627B6A4CF24F329342F7DD44
:10057400524B5A69504B1B68DB43504913404B6143
:1005840000233B6202E03B6A01333B623B6A47F271
:100594002F529342F7DD494B5A69474B1B685B0066
:1005A400464913434B610023FB6102E0FB690133BD
:1005B400FB61FB694CF24F329342F7DD3F4B5A69C2
:1005C4003D4B1B685B00DB433C4913404B610023FC
:1005D400BB6102E0BB690133BB61BB6949F63F42C1
:1005E4009342F7DD354B5A69334B1B689B00334903
:1005F40013434B6100237B6102E07B6901337B6120
:100604007B694CF24F329342F7DD2C4B5A692A4BEB
:100614001B689B00DB43294913404B6100233B616A
:1006240002E03B6901333B613B6947F22F5293423D
:10063400F7DD224B5A69204B1B68DB001F4913432B
:100644004B610023FB6002E0FB680133FB60FB6845
:100654004CF24F329342F7DD184B5A69164B1B6824
:10066400DB00DB43154913404B610023BB6002E010
:10067400BB680133BB60BB6844F61F629342F7DD7D
:100684000F4B1B68032B3FF461AF0C4B00225A61E4
:1006940000237B6002E07B6801337B607B68094A4E
:1006A4009342F8DD044B00221A6000BF2C37BD468C
:1006B4005DF8047B704700BF1C000020000002406E
:1006C400200000209F860100B0B590B000AF144B0D
:1006D4003C461D460FCD0FC40FCD0FC40FCD0FC424
:1006E40095E80F0084E80F003B4610211846FFF7F9
:1006F400D7FDFFF78BFD0B4B1B68012B02D1FFF7D6
:100704000BFEF8E7074B1B68022B02D1FFF768FECC
:10071400F1E7044B1B68032BEDD1FFF70FFFEAE76A
:10072400540800082000002080B483B000AF174BA9
:100734005B6903F00103002B22D0144B5B69134A5D
:1007440043F00103536100237B6002E07B680133C3
:100754007B607B680E4A9342F8DD0E4B1B6903F005
:100764000103002B0CD00C4B1B68022B05DC0A4B3D
:100774001B680133084A136002E0074B01221A6028
:1007840000BF0C37BD465DF8047B7047003C014058
:100794009F86010000040240200000200D48854689
:1007A400AFF300800C480D490D4A002302E0D458F1
:1007B400C4500433C4188C42F9D30A4A0A4C0023A7
:1007C40001E013600432A242FBD300F011F8FFF7FA
:1007D4007BFFFEE7008001200000002000000020D5
:1007E4009C0800080000002024000020FEE7000010
:1007F40070B50D4D0D4C641BA4100026A64209D102
:100804000B4D0C4C00F018F8641BA4100026A642F3
:1008140005D170BD55F8043B98470136EEE755F80D
:10082400043B98470136F2E794080008940800084E
:100834009408000898080008F8B500BFF8BC08BC84
:100844009E467047F8B500BFF8BC08BC9E4670478A
:10085400000000000100000002000000030000008E
:10086400040000000500000006000000070000006E
:1008740008000000090000000A0000000B0000004E
:100884000C0000000D0000000E0000000F0000002E
:04089400B90100089E
:0408980095010008BE
:04000005080007A147
:00000001FF
