:020000040800F2
:100000000080012071050008C1050008C105000835
:10001000C1050008C1050008C10500080000000076
:10002000000000000000000000000000C105000802
:10003000C105000800000000C1050008C105000856
:1000400000000000C1050008C1050008C105000846
:10005000C1050008C1050008E903000851040008B3
:10006000C1050008C1050008C1050008C105000858
:10007000C1050008C1050008C1050008C105000848
:10008000C1050008C1050008C10500080000000006
:10009000000000000000000000000000B1040008A3
:1000A000C1050008C1050008C1050008C105000818
:1000B000C1050008C1050008C1050008C105000808
:1000C000C1050008C1050008C1050008C1050008F8
:1000D000C1050008C1050008C105000800000000B6
:1000E00011050008C1050008C10500080000000056
:1000F000000000000000000000000000C105000832
:1001000000000000C1050008C1050008C105000885
:1001100000000000000000000000000000000000DF
:10012000C1050008C1050008C1050008C105000897
:10013000C1050008000000000000000000000000F1
:10014000000000000000000000000000C1050008E1
:10015000C1050008C1050008C1050008C105000867
:10016000C1050008C10500080000000000000000F3
:10017000000000000000000000000000000000007F
:10018000000000000000000000000000000000006F
:04019000C10500089D
:1001940010B5054C237833B9044B13B10448AFF3BD
:1001A40000800123237010BD000000200000000027
:1001B4000C06000808B5034B1BB103490348AFF311
:1001C400008008BD00000000040000200C060008A8
:1001D40080B483B000AF0346FB7197F90730002B5E
:1001E4000BDBFB7903F01F02074997F907305B0922
:1001F400012000FA02F241F8232000BF0C37BD466B
:100204005DF8047B704700BF00E100E080B500AFFB
:1002140072B600BF184B5B6C174A43F480435364B7
:10022400164B9B68154A43F011039360134B1B69EB
:10023400124A43F488731361114B1B68104A43F448
:10024400C06343F0030313600D4B9B680C4A43F4F3
:10025400C06343F0030393600620FFF7B9FF072050
:10026400FFF7B6FF1720FFF7B3FF2820FFF7B0FF13
:1002740062B600BF00BF80BD0038024000380140B4
:10028400003C014080B485B000AF78603960194B00
:100294001B6B184A43F0010313630023FB811DE029
:1002A400FB899B007A6813441B685B00BB60124B9C
:1002B4001A680121BB6801FA03F30F4913430B6069
:1002C4000D4B1A68BB680133012101FA03F3DB43C8
:1002D400094913400B60FB890133FB81FB893A68B0
:1002E4009A42DDDC00BF00BF1437BD465DF8047BD5
:1002F400704700BF003802400000024080B485B05F
:1003040000AF78603960244B1B6B234A43F002032F
:1003140013630023FB8133E0FB899B007A68134459
:100324001B689BB25B00BB811C4B1A68BB89012113
:1003340001FA03F3DB43194913400B60174B1A68A6
:10034400BB890133012101FA03F3DB431349134051
:100354000B60124BDA68BB89012101FA03F3DB431A
:100364000E491340CB600D4BDA68BB890133012180
:1003740001FA03F309491343CB60FB890133FB8181
:10038400FB893A689A42C7DC00BF00BF1437BD46F8
:100394005DF8047B704700BF00380240000402404F
:1003A40090B589B000AF0D4B07F110040FCB84E872
:1003B4000F0007F1100304211846FFF763FF084BF1
:1003C4003C460FCB84E80F003B4604211846FFF758
:1003D40095FFFFF71BFF00BFFDE700BF24060008E1
:1003E4003406000880B483B000AF144B5B6903F09B
:1003F4000103002B1BD0114B5B69104A43F001032E
:10040400536100237B6002E07B6801337B607B687F
:100414000B4A9342F8DD0B4B1B6903F00103002BDD
:1004240005D0094B5B69084A83F00103536100BF9F
:100434000C37BD465DF8047B704700BF003C0140AB
:100444009F860100000402400000024080B483B093
:1004540000AF134B5B6903F00203002B19D0104B60
:1004640002225A6100237B6002E07B6801337B60D7
:100474007B6842F20F729342F7DD0A4B1B6903F06B
:100484000203002B05D0084B5B69074A83F0020383
:10049400536100BF0C37BD465DF8047B704700BF55
:1004A400003C0140000402400000024080B483B0DC
:1004B40000AF134B5B6903F40073002B1AD0104B8D
:1004C4004FF400725A6100237B6002E07B680133C1
:1004D4007B607B6842F20F729342F7DD094B1B6924
:1004E40003F40073002B05D0074B5B69064A83F0C5
:1004F4000403536100BF0C37BD465DF8047B7047AD
:10050400003C0140000402400000024080B483B07B
:1005140000AF134B5B6903F48063002B1AD0104BBC
:100524004FF480625A6100237B6002E07B680133F0
:100534007B607B6842F20F729342F7DD094B1B69C3
:1005440003F48063002B05D0074B5B69064A83F0F4
:100554000803536100BF0C37BD465DF8047B704748
:10056400003C014000040240000002400D48854662
:10057400AFF300800C480D490D4A002302E0D45823
:10058400C4500433C4188C42F9D30A4A0A4C0023D9
:1005940001E013600432A242FBD300F011F8FFF72C
:1005A400FFFEFEE700800120000000200000002084
:1005B4004C060008000000201C000020FEE700009C
:1005C40070B50D4D0D4C641BA4100026A64209D134
:1005D4000B4D0C4C00F018F8641BA4100026A64226
:1005E40005D170BD55F8043B98470136EEE755F840
:1005F400043B98470136F2E7440600084406000825
:100604004406000848060008F8B500BFF8BC08BC5A
:100614009E467047F8B500BFF8BC08BC9E467047BC
:1006240000000000010000000200000003000000C0
:100634000000000001000000090000000A000000A2
:04064400B9010008F0
:040648009501000810
:040000050800057179
:00000001FF
